{"contracts/DentiaRewards.sol":{"DentiaRewards":{"abi":[{"inputs":[{"internalType":"address","name":"_admin","type":"address"}],"stateMutability":"nonpayable","type":"constructor"},{"inputs":[],"name":"AccessControlBadConfirmation","type":"error"},{"inputs":[{"internalType":"address","name":"account","type":"address"},{"internalType":"bytes32","name":"neededRole","type":"bytes32"}],"name":"AccessControlUnauthorizedAccount","type":"error"},{"inputs":[{"internalType":"uint256","name":"requested","type":"uint256"},{"internalType":"uint256","name":"remaining","type":"uint256"}],"name":"DailyRateLimitExceeded","type":"error"},{"inputs":[],"name":"EnforcedPause","type":"error"},{"inputs":[],"name":"ExpectedPause","type":"error"},{"inputs":[{"internalType":"uint256","name":"requested","type":"uint256"},{"internalType":"uint256","name":"available","type":"uint256"}],"name":"InsufficientTreasuryBalance","type":"error"},{"inputs":[{"internalType":"uint256","name":"nonce","type":"uint256"}],"name":"NonceAlreadyUsed","type":"error"},{"inputs":[],"name":"ReentrancyGuardReentrantCall","type":"error"},{"inputs":[{"internalType":"uint256","name":"requested","type":"uint256"},{"internalType":"uint256","name":"maximum","type":"uint256"}],"name":"RewardExceedsMaxPerTx","type":"error"},{"inputs":[{"internalType":"address","name":"token","type":"address"}],"name":"SafeERC20FailedOperation","type":"error"},{"inputs":[],"name":"TokenAlreadyConfigured","type":"error"},{"inputs":[],"name":"TokenNotConfigured","type":"error"},{"inputs":[],"name":"ZeroAdminAddress","type":"error"},{"inputs":[],"name":"ZeroPatientAddress","type":"error"},{"inputs":[],"name":"ZeroRewardAmount","type":"error"},{"inputs":[],"name":"ZeroTokenAddress","type":"error"},{"anonymous":false,"inputs":[{"indexed":true,"internalType":"address","name":"by","type":"address"},{"indexed":false,"internalType":"string","name":"reason","type":"string"}],"name":"EmergencyPause","type":"event"},{"anonymous":false,"inputs":[{"indexed":true,"internalType":"address","name":"by","type":"address"}],"name":"EmergencyUnpause","type":"event"},{"anonymous":false,"inputs":[{"indexed":true,"internalType":"address","name":"to","type":"address"},{"indexed":false,"internalType":"uint256","name":"amount","type":"uint256"},{"indexed":true,"internalType":"address","name":"by","type":"address"}],"name":"EmergencyWithdrawal","type":"event"},{"anonymous":false,"inputs":[{"indexed":false,"internalType":"address","name":"account","type":"address"}],"name":"Paused","type":"event"},{"anonymous":false,"inputs":[{"indexed":true,"internalType":"address","name":"patient","type":"address"},{"indexed":false,"internalType":"uint256","name":"amount","type":"uint256"},{"indexed":true,"internalType":"uint256","name":"operatorNonce","type":"uint256"},{"indexed":true,"internalType":"address","name":"operator","type":"address"},{"indexed":false,"internalType":"string","name":"reason","type":"string"}],"name":"RewardDistributed","type":"event"},{"anonymous":false,"inputs":[{"indexed":true,"internalType":"bytes32","name":"role","type":"bytes32"},{"indexed":true,"internalType":"bytes32","name":"previousAdminRole","type":"bytes32"},{"indexed":true,"internalType":"bytes32","name":"newAdminRole","type":"bytes32"}],"name":"RoleAdminChanged","type":"event"},{"anonymous":false,"inputs":[{"indexed":true,"internalType":"bytes32","name":"role","type":"bytes32"},{"indexed":true,"internalType":"address","name":"account","type":"address"},{"indexed":true,"internalType":"address","name":"sender","type":"address"}],"name":"RoleGranted","type":"event"},{"anonymous":false,"inputs":[{"indexed":true,"internalType":"bytes32","name":"role","type":"bytes32"},{"indexed":true,"internalType":"address","name":"account","type":"address"},{"indexed":true,"internalType":"address","name":"sender","type":"address"}],"name":"RoleRevoked","type":"event"},{"anonymous":false,"inputs":[{"indexed":true,"internalType":"address","name":"tokenAddress","type":"address"},{"indexed":true,"internalType":"address","name":"configuredBy","type":"address"}],"name":"TokenConfigured","type":"event"},{"anonymous":false,"inputs":[{"indexed":false,"internalType":"address","name":"account","type":"address"}],"name":"Unpaused","type":"event"},{"inputs":[],"name":"DEFAULT_ADMIN_ROLE","outputs":[{"internalType":"bytes32","name":"","type":"bytes32"}],"stateMutability":"view","type":"function"},{"inputs":[],"name":"GUARDIAN_ROLE","outputs":[{"internalType":"bytes32","name":"","type":"bytes32"}],"stateMutability":"view","type":"function"},{"inputs":[],"name":"MAX_DAILY_REWARD_PER_PATIENT","outputs":[{"internalType":"uint256","name":"","type":"uint256"}],"stateMutability":"view","type":"function"},{"inputs":[],"name":"MAX_REWARD_PER_TX","outputs":[{"internalType":"uint256","name":"","type":"uint256"}],"stateMutability":"view","type":"function"},{"inputs":[],"name":"OPERATOR_ROLE","outputs":[{"internalType":"bytes32","name":"","type":"bytes32"}],"stateMutability":"view","type":"function"},{"inputs":[],"name":"RATE_LIMIT_PERIOD","outputs":[{"internalType":"uint256","name":"","type":"uint256"}],"stateMutability":"view","type":"function"},{"inputs":[{"internalType":"address[]","name":"patients","type":"address[]"},{"internalType":"uint256[]","name":"amounts","type":"uint256[]"},{"internalType":"uint256[]","name":"nonces","type":"uint256[]"},{"internalType":"string[]","name":"reasons","type":"string[]"}],"name":"batchRewardPatients","outputs":[],"stateMutability":"nonpayable","type":"function"},{"inputs":[],"name":"dentiaToken","outputs":[{"internalType":"contract IERC20","name":"","type":"address"}],"stateMutability":"view","type":"function"},{"inputs":[],"name":"deploymentTimestamp","outputs":[{"internalType":"uint256","name":"","type":"uint256"}],"stateMutability":"view","type":"function"},{"inputs":[{"internalType":"string","name":"reason","type":"string"}],"name":"emergencyPause","outputs":[],"stateMutability":"nonpayable","type":"function"},{"inputs":[],"name":"emergencyUnpause","outputs":[],"stateMutability":"nonpayable","type":"function"},{"inputs":[{"internalType":"address","name":"to","type":"address"},{"internalType":"uint256","name":"amount","type":"uint256"}],"name":"emergencyWithdraw","outputs":[],"stateMutability":"nonpayable","type":"function"},{"inputs":[{"internalType":"address","name":"patient","type":"address"}],"name":"getRemainingDailyAllowance","outputs":[{"internalType":"uint256","name":"remainingAllowance","type":"uint256"},{"internalType":"uint256","name":"resetTime","type":"uint256"}],"stateMutability":"view","type":"function"},{"inputs":[{"internalType":"bytes32","name":"role","type":"bytes32"}],"name":"getRoleAdmin","outputs":[{"internalType":"bytes32","name":"","type":"bytes32"}],"stateMutability":"view","type":"function"},{"inputs":[],"name":"getStatistics","outputs":[{"internalType":"uint256","name":"_totalDistributed","type":"uint256"},{"internalType":"uint256","name":"_totalPatients","type":"uint256"},{"internalType":"uint256","name":"_treasuryBalance","type":"uint256"}],"stateMutability":"view","type":"function"},{"inputs":[{"internalType":"bytes32","name":"role","type":"bytes32"},{"internalType":"address","name":"account","type":"address"}],"name":"grantRole","outputs":[],"stateMutability":"nonpayable","type":"function"},{"inputs":[{"internalType":"address","name":"","type":"address"}],"name":"hasReceivedRewards","outputs":[{"internalType":"bool","name":"","type":"bool"}],"stateMutability":"view","type":"function"},{"inputs":[{"internalType":"bytes32","name":"role","type":"bytes32"},{"internalType":"address","name":"account","type":"address"}],"name":"hasRole","outputs":[{"internalType":"bool","name":"","type":"bool"}],"stateMutability":"view","type":"function"},{"inputs":[{"internalType":"address","name":"operator","type":"address"},{"internalType":"uint256","name":"nonce","type":"uint256"}],"name":"isNonceUsed","outputs":[{"internalType":"bool","name":"","type":"bool"}],"stateMutability":"view","type":"function"},{"inputs":[],"name":"paused","outputs":[{"internalType":"bool","name":"","type":"bool"}],"stateMutability":"view","type":"function"},{"inputs":[{"internalType":"address","name":"","type":"address"}],"name":"rateLimits","outputs":[{"internalType":"uint256","name":"amount","type":"uint256"},{"internalType":"uint256","name":"resetTime","type":"uint256"}],"stateMutability":"view","type":"function"},{"inputs":[{"internalType":"bytes32","name":"role","type":"bytes32"},{"internalType":"address","name":"callerConfirmation","type":"address"}],"name":"renounceRole","outputs":[],"stateMutability":"nonpayable","type":"function"},{"inputs":[{"internalType":"bytes32","name":"role","type":"bytes32"},{"internalType":"address","name":"account","type":"address"}],"name":"revokeRole","outputs":[],"stateMutability":"nonpayable","type":"function"},{"inputs":[{"internalType":"address","name":"patientWallet","type":"address"},{"internalType":"uint256","name":"amount","type":"uint256"},{"internalType":"uint256","name":"nonce","type":"uint256"},{"internalType":"string","name":"reason","type":"string"}],"name":"rewardPatient","outputs":[],"stateMutability":"nonpayable","type":"function"},{"inputs":[{"internalType":"address","name":"_tokenAddress","type":"address"}],"name":"setTokenAddress","outputs":[],"stateMutability":"nonpayable","type":"function"},{"inputs":[{"internalType":"bytes4","name":"interfaceId","type":"bytes4"}],"name":"supportsInterface","outputs":[{"internalType":"bool","name":"","type":"bool"}],"stateMutability":"view","type":"function"},{"inputs":[],"name":"totalDistributed","outputs":[{"internalType":"uint256","name":"","type":"uint256"}],"stateMutability":"view","type":"function"},{"inputs":[],"name":"totalPatients","outputs":[{"internalType":"uint256","name":"","type":"uint256"}],"stateMutability":"view","type":"function"},{"inputs":[],"name":"treasuryBalance","outputs":[{"internalType":"uint256","name":"","type":"uint256"}],"stateMutability":"view","type":"function"},{"inputs":[{"internalType":"address","name":"","type":"address"},{"internalType":"uint256","name":"","type":"uint256"}],"name":"usedNonces","outputs":[{"internalType":"bool","name":"","type":"bool"}],"stateMutability":"view","type":"function"}],"evm":{"bytecode":{"linkReferences":{},"object":"60a034620000a757601f6200179838819003918201601f19168301916001600160401b03831184841017620000ac57808492602094604052833981010312620000a757516001600160a01b038116808203620000a75760016002551562000095576200007b90426080526200007481620000c2565b5062000142565b506040516115939081620001e582396080518161039c0152f35b604051633ef39b8160e01b8152600490fd5b600080fd5b634e487b7160e01b600052604160045260246000fd5b6001600160a01b031660008181527fad3228b676f7d3cd4284a5443f17f1962b36e491b30a40b2405849e597ba5fb5602052604081205490919060ff166200013e57818052816020526040822081835260205260408220600160ff198254161790553391600080516020620017788339815191528180a4600190565b5090565b6001600160a01b031660008181527f8a40f0b47fdc2a0ce293b772acfc7508c8315a4d462786c1adc3a56f92ca2d0560205260408120549091907f55435dd261a4b9b3364963f7738a7a662ad9c84396d64be3365284bb7f0a50419060ff16620001df57808352826020526040832082845260205260408320600160ff1982541617905560008051602062001778833981519152339380a4600190565b50509056fe608080604052600436101561001357600080fd5b60003560e01c90816301ffc9a71461102d575080631b583f9014610ffe578063248a9ca314610fcf57806324ea54f414610f9457806326a4e8d214610efb57806326a77aa214610ed65780632f2ff15d14610e9757806331323a9314610e72578063313dab2014610e4f57806336568abe14610e08578063372d6b2714610d5b5780634a4e3bd514610ccb5780635c975abb14610ca85780636040fa8b14610c6957806368e41046146108545780636a8a6894146103375780637a14c7d21461081157806391d14854146107c457806395ccea67146107435780639b0ed5a31461071a578063a217fddf146106fe578063b257d568146103dd578063b7b188d1146103bf578063bfc12c0514610384578063cab7e8eb14610337578063cf5b4fd514610226578063d547741f146101e5578063deb5ef09146101c7578063efca2eed146101a95763f5b541a61461016957600080fd5b346101a45760003660031901126101a45760206040517f97667070c54ef182b0f5858b034beac1b6f3089aa2d3188bb1e8929f4fa9b9298152f35b600080fd5b346101a45760003660031901126101a4576020600454604051908152f35b346101a45760003660031901126101a4576020600554604051908152f35b346101a45760403660031901126101a457610224600435610204611096565b9080600052600060205261021f6001604060002001546111bf565b611263565b005b346101a4576020806003193601126101a45760043567ffffffffffffffff81116101a4576102589036906004016110dd565b91907f55435dd261a4b9b3364963f7738a7a662ad9c84396d64be3365284bb7f0a5041928360005260008352604060002033600052835260ff604060002054161561031857907fc50068396f19981cb0435611d2c97dde7b6882fdc3185a9fb8080fa756b3974d916102c86112f9565b600160ff19815416176001557f62e78cea01bee320cd4e420270b5ea74000d11b0c9f74754ebdbfc544b05a25884604051338152a161031360405192839286845233968401916112d8565b0390a2005b60405163e2517d3f60e01b815233600482015260248101859052604490fd5b346101a45760403660031901126101a4576001600160a01b03610358611080565b1660005260066020526040600020602435600052602052602060ff604060002054166040519015158152f35b346101a45760003660031901126101a45760206040517f00000000000000000000000000000000000000000000000000000000000000008152f35b346101a45760003660031901126101a4576020604051620151808152f35b346101a45760803660031901126101a4576103f6611080565b60248035916044359160643567ffffffffffffffff81116101a45761041f9036906004016110dd565b9490610429611163565b6104316112f9565b6104396113e5565b6003546001600160a01b0394908516156106ec578481169485156106da5783156106c85769152d02c7e14af68000008085116106ab57503360005260209460068652604060002088600052865260ff60406000205416610695578660005260078652604060002090600182018054421015610667575b50815469021e19e0c9bab240000090810390811161065257808711610636575080878460035416604051938480926370a0823160e01b82523060048301525afa91821561062a576000926105fb575b508187116105de575050846105b7937faa715b109aa36fd2fe37fc46f2c7c7c2b3d52ed90e6d6d150dcdca119d519b889796959361059f93336000526006895260406000208c600052895260406000209060ff1991600183825416179055610567858254611406565b905561057584600454611406565b6004558a6000526008895260406000209081549060ff8216156105c1575b5050506003541661134f565b604080519485948552840152339760408401916112d8565b0390a46001600255005b600191161790556105d3600554611413565b6005558c8080610593565b604491879160405192630207d7f360e41b84526004840152820152fd5b9091508781813d8311610623575b6106138183611317565b810103126101a45751908b6104fe565b503d610609565b6040513d6000823e3d90fd5b60405162c85fbd60e31b81526004810188905291820152604490fd5b50634e487b7160e01b60009081526011600452fd5b600083556201518042019081421161068057558a6104af565b82634e487b7160e01b60005260116004526000fd5b604051632472ad4160e21b815260048101899052fd5b8460449187604051926394521a6960e01b84526004840152820152fd5b60405163ea1083a760e01b8152600490fd5b604051632c98acef60e11b8152600490fd5b604051631d8730d160e31b8152600490fd5b346101a45760003660031901126101a457602060405160008152f35b346101a45760003660031901126101a4576003546040516001600160a01b039091168152602090f35b346101a45760403660031901126101a45761075c611080565b60243561076761110b565b61076f6113e5565b6003546001600160a01b0390811680156106ec577f3ab9db27a4cdd8c603a752b62d5fbd93b4b3509fe2596708e9688e42bbac3576916107b2848660209461134f565b60405193845233941692a36001600255005b346101a45760403660031901126101a4576107dd611096565b600435600052600060205260406000209060018060a01b0316600052602052602060ff604060002054166040519015158152f35b346101a45760203660031901126101a4576001600160a01b03610832611080565b1660005260076020526040806000206001815491015482519182526020820152f35b346101a45760803660031901126101a45760043567ffffffffffffffff81116101a4576108859036906004016110ac565b9060243567ffffffffffffffff81116101a4576108a69036906004016110ac565b92906044803567ffffffffffffffff81116101a4576108c99036906004016110ac565b93909560643567ffffffffffffffff81116101a4576108ec9036906004016110ac565b9490926108f7611163565b6108ff6112f9565b6109076113e5565b82811480610c60575b80610c57575b15610c1b5760328111610be55760005b818110610934576001600255005b61093f81838b611422565b356001600160a01b03811681036101a4578a610968838b610961828a8a611422565b3593611422565b359089841015610bcf578360051b880135601e19893603018112156101a45788019067ffffffffffffffff8235116101a4578135360360208301136101a4576003546001600160a01b0316156106ec576001600160a01b038416156106da5780156106c85769152d02c7e14af6800000808211610bb2575033600052600660205260406000208360005260205260ff60406000205416610b99576001600160a01b0384166000908152600760205260409020600181018054421015610b80575b50805469021e19e0c9bab2400000908103908111610b6a57808311610b4e5750610b2c95949392917faa715b109aa36fd2fe37fc46f2c7c7c2b3d52ed90e6d6d150dcdca119d519b889133600052600660205260406000208560005260205260406000209060ff1991600183825416179055610aa5838254611406565b9055610ab382600454611406565b6004556001600160a01b03861660009081526008602052604090208054909160ff821615610b31575b5050600354610af89150829087906001600160a01b031661134f565b6040519081526040602082015280610b24339660018060a01b03169460408301906020813591016112d8565b0390a4611413565b610926565b60019116179055610b43600554611413565b600555388080610adc565b828c916040519162c85fbd60e31b835260048301526024820152fd5b634e487b7160e01b600052601160045260246000fd5b6000825562015180420190814211610b6a57558f610a28565b604051632472ad4160e21b815260048101849052602490fd5b8a9250604051916394521a6960e01b835260048301526024820152fd5b634e487b7160e01b600052603260045260246000fd5b60405162461bcd60e51b815260206004820152600f60248201526e426174636820746f6f206c6172676560881b81870152606490fd5b60405162461bcd60e51b8152602060048201526015602482015274082e4e4c2f240d8cadccee8d040dad2e6dac2e8c6d605b1b81870152606490fd5b50858114610916565b50868114610910565b346101a45760203660031901126101a4576001600160a01b03610c8a611080565b166000526008602052602060ff604060002054166040519015158152f35b346101a45760003660031901126101a457602060ff600154166040519015158152f35b346101a45760003660031901126101a457610ce461110b565b60015460ff811615610d495760ff19166001557f5db9ee0a495bf2e6ff9c91a7834c1ba4fdd244a5e8aa4e537bd38aeae4b073aa6020604051338152a1337f306ca22c455fe433ebbf0542bbf947ea6a725495f9e1043db2a47e3c57940385600080a2005b604051638dfc202b60e01b8152600490fd5b346101a45760003660031901126101a4576004546005546003546001600160a01b031691908215610dfc576020602493604051948580926370a0823160e01b82523060048301525afa801561062a57600090610dca575b60609350905b60405192835260208301526040820152f35b506020833d8211610df4575b81610de360209383611317565b810103126101a45760609251610db2565b3d9150610dd6565b60609250600090610db8565b346101a45760403660031901126101a457610e21611096565b336001600160a01b03821603610e3d5761022490600435611263565b60405163334bd91960e11b8152600490fd5b346101a45760003660031901126101a4576020610e6a611432565b604051908152f35b346101a45760003660031901126101a457602060405169152d02c7e14af68000008152f35b346101a45760403660031901126101a457610224600435610eb6611096565b90806000526000602052610ed16001604060002001546111bf565b6111e5565b346101a45760003660031901126101a457602060405169021e19e0c9bab24000008152f35b346101a45760203660031901126101a457610f14611080565b610f1c61110b565b600354906001600160a01b0390818316610f825716908115610f70576001600160a01b031916811760035533907fb91b059ec6effdbc3104cd63853c5f0c247e5732327f1cce6d35e2081211b2d1600080a3005b604051636b093aad60e01b8152600490fd5b6040516343efd39d60e01b8152600490fd5b346101a45760003660031901126101a45760206040517f55435dd261a4b9b3364963f7738a7a662ad9c84396d64be3365284bb7f0a50418152f35b346101a45760203660031901126101a45760043560005260006020526020600160406000200154604051908152f35b346101a45760203660031901126101a457604061102161101c611080565b6114ab565b82519182526020820152f35b346101a45760203660031901126101a4576004359063ffffffff60e01b82168092036101a457602091637965db0b60e01b811490811561106f575b5015158152f35b6301ffc9a760e01b14905083611068565b600435906001600160a01b03821682036101a457565b602435906001600160a01b03821682036101a457565b9181601f840112156101a45782359167ffffffffffffffff83116101a4576020808501948460051b0101116101a457565b9181601f840112156101a45782359167ffffffffffffffff83116101a457602083818601950101116101a457565b3360009081527fad3228b676f7d3cd4284a5443f17f1962b36e491b30a40b2405849e597ba5fb5602052604081205460ff16156111455750565b6044906040519063e2517d3f60e01b82523360048301526024820152fd5b3360009081527fee57cd81e84075558e8fcc182a1f4393f91fc97f963a136e66b7f949a62f319f60205260409020547f97667070c54ef182b0f5858b034beac1b6f3089aa2d3188bb1e8929f4fa9b9299060ff16156111455750565b80600052600060205260406000203360005260205260ff60406000205416156111455750565b9060009180835282602052604083209160018060a01b03169182845260205260ff6040842054161560001461125e57808352826020526040832082845260205260408320600160ff198254161790557f2f8788117e7eff1d82e926ec794901d17c78024a50270940304540a733656f0d339380a4600190565b505090565b9060009180835282602052604083209160018060a01b03169182845260205260ff60408420541660001461125e5780835282602052604083208284526020526040832060ff1981541690557ff6391f5c32d9c69d2a47ea670b442974b53935d1edc7fd64eb21e047a839171b339380a4600190565b908060209392818452848401376000828201840152601f01601f1916010190565b60ff6001541661130557565b60405163d93c066560e01b8152600490fd5b90601f8019910116810190811067ffffffffffffffff82111761133957604052565b634e487b7160e01b600052604160045260246000fd5b60405163a9059cbb60e01b602082019081526001600160a01b0393841660248301526044808301959095529381529092608082019067ffffffffffffffff82118383101761133957602092600092604052519082865af11561062a576000513d6113dc57508082163b155b6113c2575050565b604051635274afe760e01b81529116600482015260249150fd5b600114156113ba565b60028054146113f45760028055565b604051633ee5aeb560e01b8152600490fd5b91908201809211610b6a57565b6000198114610b6a5760010190565b9190811015610bcf5760051b0190565b6003546001600160a01b031680156114a5576020602491604051928380926370a0823160e01b82523060048301525afa90811561062a57600091611474575090565b906020823d821161149d575b8161148d60209383611317565b8101031261149a57505190565b80fd5b3d9150611480565b50600090565b6001600160a01b0316600090815260076020526040808220815192939291820167ffffffffffffffff81118382101761154957604052805482526001015460208201818152919042101561152957519269021e19e0c9bab240000093840393841161151557505190565b634e487b7160e01b81526011600452602490fd5b505062015180420191824211611515575069021e19e0c9bab24000009190565b634e487b7160e01b85526041600452602485fdfea2646970667358221220cb457991abfc3300fcfa17b373510c849304b9ed7a94926017d3a525610241b364736f6c634300081400332f8788117e7eff1d82e926ec794901d17c78024a50270940304540a733656f0d","opcodes":"PUSH1 0xA0 CALLVALUE PUSH3 0xA7 JUMPI PUSH1 0x1F PUSH3 0x1798 CODESIZE DUP2 SWAP1 SUB SWAP2 DUP3 ADD PUSH1 0x1F NOT AND DUP4 ADD SWAP2 PUSH1 0x1 PUSH1 0x1 PUSH1 0x40 SHL SUB DUP4 GT DUP5 DUP5 LT OR PUSH3 0xAC JUMPI DUP1 DUP5 SWAP3 PUSH1 0x20 SWAP5 PUSH1 0x40 MSTORE DUP4 CODECOPY DUP2 ADD SUB SLT PUSH3 0xA7 JUMPI MLOAD PUSH1 0x1 PUSH1 0x1 PUSH1 0xA0 SHL SUB DUP2 AND DUP1 DUP3 SUB PUSH3 0xA7 JUMPI PUSH1 0x1 PUSH1 0x2 SSTORE ISZERO PUSH3 0x95 JUMPI PUSH3 0x7B SWAP1 TIMESTAMP PUSH1 0x80 MSTORE PUSH3 0x74 DUP2 PUSH3 0xC2 JUMP JUMPDEST POP PUSH3 0x142 JUMP JUMPDEST POP PUSH1 0x40 MLOAD PUSH2 0x1593 SWAP1 DUP2 PUSH3 0x1E5 DUP3 CODECOPY PUSH1 0x80 MLOAD DUP2 PUSH2 0x39C ADD MSTORE RETURN JUMPDEST PUSH1 0x40 MLOAD PUSH4 0x3EF39B81 PUSH1 0xE0 SHL DUP2 MSTORE PUSH1 0x4 SWAP1 REVERT JUMPDEST PUSH1 0x0 DUP1 REVERT JUMPDEST PUSH4 0x4E487B71 PUSH1 0xE0 SHL PUSH1 0x0 MSTORE PUSH1 0x41 PUSH1 0x4 MSTORE PUSH1 0x24 PUSH1 0x0 REVERT JUMPDEST PUSH1 0x1 PUSH1 0x1 PUSH1 0xA0 SHL SUB AND PUSH1 0x0 DUP2 DUP2 MSTORE PUSH32 0xAD3228B676F7D3CD4284A5443F17F1962B36E491B30A40B2405849E597BA5FB5 PUSH1 0x20 MSTORE PUSH1 0x40 DUP2 KECCAK256 SLOAD SWAP1 SWAP2 SWAP1 PUSH1 0xFF AND PUSH3 0x13E JUMPI DUP2 DUP1 MSTORE DUP2 PUSH1 0x20 MSTORE PUSH1 0x40 DUP3 KECCAK256 DUP2 DUP4 MSTORE PUSH1 0x20 MSTORE PUSH1 0x40 DUP3 KECCAK256 PUSH1 0x1 PUSH1 0xFF NOT DUP3 SLOAD AND OR SWAP1 SSTORE CALLER SWAP2 PUSH1 0x0 DUP1 MLOAD PUSH1 0x20 PUSH3 0x1778 DUP4 CODECOPY DUP2 MLOAD SWAP2 MSTORE DUP2 DUP1 LOG4 PUSH1 0x1 SWAP1 JUMP JUMPDEST POP SWAP1 JUMP JUMPDEST PUSH1 0x1 PUSH1 0x1 PUSH1 0xA0 SHL SUB AND PUSH1 0x0 DUP2 DUP2 MSTORE PUSH32 0x8A40F0B47FDC2A0CE293B772ACFC7508C8315A4D462786C1ADC3A56F92CA2D05 PUSH1 0x20 MSTORE PUSH1 0x40 DUP2 KECCAK256 SLOAD SWAP1 SWAP2 SWAP1 PUSH32 0x55435DD261A4B9B3364963F7738A7A662AD9C84396D64BE3365284BB7F0A5041 SWAP1 PUSH1 0xFF AND PUSH3 0x1DF JUMPI DUP1 DUP4 MSTORE DUP3 PUSH1 0x20 MSTORE PUSH1 0x40 DUP4 KECCAK256 DUP3 DUP5 MSTORE PUSH1 0x20 MSTORE PUSH1 0x40 DUP4 KECCAK256 PUSH1 0x1 PUSH1 0xFF NOT DUP3 SLOAD AND OR SWAP1 SSTORE PUSH1 0x0 DUP1 MLOAD PUSH1 0x20 PUSH3 0x1778 DUP4 CODECOPY DUP2 MLOAD SWAP2 MSTORE CALLER SWAP4 DUP1 LOG4 PUSH1 0x1 SWAP1 JUMP JUMPDEST POP POP SWAP1 JUMP INVALID PUSH1 0x80 DUP1 PUSH1 0x40 MSTORE PUSH1 0x4 CALLDATASIZE LT ISZERO PUSH2 0x13 JUMPI PUSH1 0x0 DUP1 REVERT JUMPDEST PUSH1 0x0 CALLDATALOAD PUSH1 0xE0 SHR SWAP1 DUP2 PUSH4 0x1FFC9A7 EQ PUSH2 0x102D JUMPI POP DUP1 PUSH4 0x1B583F90 EQ PUSH2 0xFFE JUMPI DUP1 PUSH4 0x248A9CA3 EQ PUSH2 0xFCF JUMPI DUP1 PUSH4 0x24EA54F4 EQ PUSH2 0xF94 JUMPI DUP1 PUSH4 0x26A4E8D2 EQ PUSH2 0xEFB JUMPI DUP1 PUSH4 0x26A77AA2 EQ PUSH2 0xED6 JUMPI DUP1 PUSH4 0x2F2FF15D EQ PUSH2 0xE97 JUMPI DUP1 PUSH4 0x31323A93 EQ PUSH2 0xE72 JUMPI DUP1 PUSH4 0x313DAB20 EQ PUSH2 0xE4F JUMPI DUP1 PUSH4 0x36568ABE EQ PUSH2 0xE08 JUMPI DUP1 PUSH4 0x372D6B27 EQ PUSH2 0xD5B JUMPI DUP1 PUSH4 0x4A4E3BD5 EQ PUSH2 0xCCB JUMPI DUP1 PUSH4 0x5C975ABB EQ PUSH2 0xCA8 JUMPI DUP1 PUSH4 0x6040FA8B EQ PUSH2 0xC69 JUMPI DUP1 PUSH4 0x68E41046 EQ PUSH2 0x854 JUMPI DUP1 PUSH4 0x6A8A6894 EQ PUSH2 0x337 JUMPI DUP1 PUSH4 0x7A14C7D2 EQ PUSH2 0x811 JUMPI DUP1 PUSH4 0x91D14854 EQ PUSH2 0x7C4 JUMPI DUP1 PUSH4 0x95CCEA67 EQ PUSH2 0x743 JUMPI DUP1 PUSH4 0x9B0ED5A3 EQ PUSH2 0x71A JUMPI DUP1 PUSH4 0xA217FDDF EQ PUSH2 0x6FE JUMPI DUP1 PUSH4 0xB257D568 EQ PUSH2 0x3DD JUMPI DUP1 PUSH4 0xB7B188D1 EQ PUSH2 0x3BF JUMPI DUP1 PUSH4 0xBFC12C05 EQ PUSH2 0x384 JUMPI DUP1 PUSH4 0xCAB7E8EB EQ PUSH2 0x337 JUMPI DUP1 PUSH4 0xCF5B4FD5 EQ PUSH2 0x226 JUMPI DUP1 PUSH4 0xD547741F EQ PUSH2 0x1E5 JUMPI DUP1 PUSH4 0xDEB5EF09 EQ PUSH2 0x1C7 JUMPI DUP1 PUSH4 0xEFCA2EED EQ PUSH2 0x1A9 JUMPI PUSH4 0xF5B541A6 EQ PUSH2 0x169 JUMPI PUSH1 0x0 DUP1 REVERT JUMPDEST CALLVALUE PUSH2 0x1A4 JUMPI PUSH1 0x0 CALLDATASIZE PUSH1 0x3 NOT ADD SLT PUSH2 0x1A4 JUMPI PUSH1 0x20 PUSH1 0x40 MLOAD PUSH32 0x97667070C54EF182B0F5858B034BEAC1B6F3089AA2D3188BB1E8929F4FA9B929 DUP2 MSTORE RETURN JUMPDEST PUSH1 0x0 DUP1 REVERT JUMPDEST CALLVALUE PUSH2 0x1A4 JUMPI PUSH1 0x0 CALLDATASIZE PUSH1 0x3 NOT ADD SLT PUSH2 0x1A4 JUMPI PUSH1 0x20 PUSH1 0x4 SLOAD PUSH1 0x40 MLOAD SWAP1 DUP2 MSTORE RETURN JUMPDEST CALLVALUE PUSH2 0x1A4 JUMPI PUSH1 0x0 CALLDATASIZE PUSH1 0x3 NOT ADD SLT PUSH2 0x1A4 JUMPI PUSH1 0x20 PUSH1 0x5 SLOAD PUSH1 0x40 MLOAD SWAP1 DUP2 MSTORE RETURN JUMPDEST CALLVALUE PUSH2 0x1A4 JUMPI PUSH1 0x40 CALLDATASIZE PUSH1 0x3 NOT ADD SLT PUSH2 0x1A4 JUMPI PUSH2 0x224 PUSH1 0x4 CALLDATALOAD PUSH2 0x204 PUSH2 0x1096 JUMP JUMPDEST SWAP1 DUP1 PUSH1 0x0 MSTORE PUSH1 0x0 PUSH1 0x20 MSTORE PUSH2 0x21F PUSH1 0x1 PUSH1 0x40 PUSH1 0x0 KECCAK256 ADD SLOAD PUSH2 0x11BF JUMP JUMPDEST PUSH2 0x1263 JUMP JUMPDEST STOP JUMPDEST CALLVALUE PUSH2 0x1A4 JUMPI PUSH1 0x20 DUP1 PUSH1 0x3 NOT CALLDATASIZE ADD SLT PUSH2 0x1A4 JUMPI PUSH1 0x4 CALLDATALOAD PUSH8 0xFFFFFFFFFFFFFFFF DUP2 GT PUSH2 0x1A4 JUMPI PUSH2 0x258 SWAP1 CALLDATASIZE SWAP1 PUSH1 0x4 ADD PUSH2 0x10DD JUMP JUMPDEST SWAP2 SWAP1 PUSH32 0x55435DD261A4B9B3364963F7738A7A662AD9C84396D64BE3365284BB7F0A5041 SWAP3 DUP4 PUSH1 0x0 MSTORE PUSH1 0x0 DUP4 MSTORE PUSH1 0x40 PUSH1 0x0 KECCAK256 CALLER PUSH1 0x0 MSTORE DUP4 MSTORE PUSH1 0xFF PUSH1 0x40 PUSH1 0x0 KECCAK256 SLOAD AND ISZERO PUSH2 0x318 JUMPI SWAP1 PUSH32 0xC50068396F19981CB0435611D2C97DDE7B6882FDC3185A9FB8080FA756B3974D SWAP2 PUSH2 0x2C8 PUSH2 0x12F9 JUMP JUMPDEST PUSH1 0x1 PUSH1 0xFF NOT DUP2 SLOAD AND OR PUSH1 0x1 SSTORE PUSH32 0x62E78CEA01BEE320CD4E420270B5EA74000D11B0C9F74754EBDBFC544B05A258 DUP5 PUSH1 0x40 MLOAD CALLER DUP2 MSTORE LOG1 PUSH2 0x313 PUSH1 0x40 MLOAD SWAP3 DUP4 SWAP3 DUP7 DUP5 MSTORE CALLER SWAP7 DUP5 ADD SWAP2 PUSH2 0x12D8 JUMP JUMPDEST SUB SWAP1 LOG2 STOP JUMPDEST PUSH1 0x40 MLOAD PUSH4 0xE2517D3F PUSH1 0xE0 SHL DUP2 MSTORE CALLER PUSH1 0x4 DUP3 ADD MSTORE PUSH1 0x24 DUP2 ADD DUP6 SWAP1 MSTORE PUSH1 0x44 SWAP1 REVERT JUMPDEST CALLVALUE PUSH2 0x1A4 JUMPI PUSH1 0x40 CALLDATASIZE PUSH1 0x3 NOT ADD SLT PUSH2 0x1A4 JUMPI PUSH1 0x1 PUSH1 0x1 PUSH1 0xA0 SHL SUB PUSH2 0x358 PUSH2 0x1080 JUMP JUMPDEST AND PUSH1 0x0 MSTORE PUSH1 0x6 PUSH1 0x20 MSTORE PUSH1 0x40 PUSH1 0x0 KECCAK256 PUSH1 0x24 CALLDATALOAD PUSH1 0x0 MSTORE PUSH1 0x20 MSTORE PUSH1 0x20 PUSH1 0xFF PUSH1 0x40 PUSH1 0x0 KECCAK256 SLOAD AND PUSH1 0x40 MLOAD SWAP1 ISZERO ISZERO DUP2 MSTORE RETURN JUMPDEST CALLVALUE PUSH2 0x1A4 JUMPI PUSH1 0x0 CALLDATASIZE PUSH1 0x3 NOT ADD SLT PUSH2 0x1A4 JUMPI PUSH1 0x20 PUSH1 0x40 MLOAD PUSH32 0x0 DUP2 MSTORE RETURN JUMPDEST CALLVALUE PUSH2 0x1A4 JUMPI PUSH1 0x0 CALLDATASIZE PUSH1 0x3 NOT ADD SLT PUSH2 0x1A4 JUMPI PUSH1 0x20 PUSH1 0x40 MLOAD PUSH3 0x15180 DUP2 MSTORE RETURN JUMPDEST CALLVALUE PUSH2 0x1A4 JUMPI PUSH1 0x80 CALLDATASIZE PUSH1 0x3 NOT ADD SLT PUSH2 0x1A4 JUMPI PUSH2 0x3F6 PUSH2 0x1080 JUMP JUMPDEST PUSH1 0x24 DUP1 CALLDATALOAD SWAP2 PUSH1 0x44 CALLDATALOAD SWAP2 PUSH1 0x64 CALLDATALOAD PUSH8 0xFFFFFFFFFFFFFFFF DUP2 GT PUSH2 0x1A4 JUMPI PUSH2 0x41F SWAP1 CALLDATASIZE SWAP1 PUSH1 0x4 ADD PUSH2 0x10DD JUMP JUMPDEST SWAP5 SWAP1 PUSH2 0x429 PUSH2 0x1163 JUMP JUMPDEST PUSH2 0x431 PUSH2 0x12F9 JUMP JUMPDEST PUSH2 0x439 PUSH2 0x13E5 JUMP JUMPDEST PUSH1 0x3 SLOAD PUSH1 0x1 PUSH1 0x1 PUSH1 0xA0 SHL SUB SWAP5 SWAP1 DUP6 AND ISZERO PUSH2 0x6EC JUMPI DUP5 DUP2 AND SWAP5 DUP6 ISZERO PUSH2 0x6DA JUMPI DUP4 ISZERO PUSH2 0x6C8 JUMPI PUSH10 0x152D02C7E14AF6800000 DUP1 DUP6 GT PUSH2 0x6AB JUMPI POP CALLER PUSH1 0x0 MSTORE PUSH1 0x20 SWAP5 PUSH1 0x6 DUP7 MSTORE PUSH1 0x40 PUSH1 0x0 KECCAK256 DUP9 PUSH1 0x0 MSTORE DUP7 MSTORE PUSH1 0xFF PUSH1 0x40 PUSH1 0x0 KECCAK256 SLOAD AND PUSH2 0x695 JUMPI DUP7 PUSH1 0x0 MSTORE PUSH1 0x7 DUP7 MSTORE PUSH1 0x40 PUSH1 0x0 KECCAK256 SWAP1 PUSH1 0x1 DUP3 ADD DUP1 SLOAD TIMESTAMP LT ISZERO PUSH2 0x667 JUMPI JUMPDEST POP DUP2 SLOAD PUSH10 0x21E19E0C9BAB2400000 SWAP1 DUP2 SUB SWAP1 DUP2 GT PUSH2 0x652 JUMPI DUP1 DUP8 GT PUSH2 0x636 JUMPI POP DUP1 DUP8 DUP5 PUSH1 0x3 SLOAD AND PUSH1 0x40 MLOAD SWAP4 DUP5 DUP1 SWAP3 PUSH4 0x70A08231 PUSH1 0xE0 SHL DUP3 MSTORE ADDRESS PUSH1 0x4 DUP4 ADD MSTORE GAS STATICCALL SWAP2 DUP3 ISZERO PUSH2 0x62A JUMPI PUSH1 0x0 SWAP3 PUSH2 0x5FB JUMPI JUMPDEST POP DUP2 DUP8 GT PUSH2 0x5DE JUMPI POP POP DUP5 PUSH2 0x5B7 SWAP4 PUSH32 0xAA715B109AA36FD2FE37FC46F2C7C7C2B3D52ED90E6D6D150DCDCA119D519B88 SWAP8 SWAP7 SWAP6 SWAP4 PUSH2 0x59F SWAP4 CALLER PUSH1 0x0 MSTORE PUSH1 0x6 DUP10 MSTORE PUSH1 0x40 PUSH1 0x0 KECCAK256 DUP13 PUSH1 0x0 MSTORE DUP10 MSTORE PUSH1 0x40 PUSH1 0x0 KECCAK256 SWAP1 PUSH1 0xFF NOT SWAP2 PUSH1 0x1 DUP4 DUP3 SLOAD AND OR SWAP1 SSTORE PUSH2 0x567 DUP6 DUP3 SLOAD PUSH2 0x1406 JUMP JUMPDEST SWAP1 SSTORE PUSH2 0x575 DUP5 PUSH1 0x4 SLOAD PUSH2 0x1406 JUMP JUMPDEST PUSH1 0x4 SSTORE DUP11 PUSH1 0x0 MSTORE PUSH1 0x8 DUP10 MSTORE PUSH1 0x40 PUSH1 0x0 KECCAK256 SWAP1 DUP2 SLOAD SWAP1 PUSH1 0xFF DUP3 AND ISZERO PUSH2 0x5C1 JUMPI JUMPDEST POP POP POP PUSH1 0x3 SLOAD AND PUSH2 0x134F JUMP JUMPDEST PUSH1 0x40 DUP1 MLOAD SWAP5 DUP6 SWAP5 DUP6 MSTORE DUP5 ADD MSTORE CALLER SWAP8 PUSH1 0x40 DUP5 ADD SWAP2 PUSH2 0x12D8 JUMP JUMPDEST SUB SWAP1 LOG4 PUSH1 0x1 PUSH1 0x2 SSTORE STOP JUMPDEST PUSH1 0x1 SWAP2 AND OR SWAP1 SSTORE PUSH2 0x5D3 PUSH1 0x5 SLOAD PUSH2 0x1413 JUMP JUMPDEST PUSH1 0x5 SSTORE DUP13 DUP1 DUP1 PUSH2 0x593 JUMP JUMPDEST PUSH1 0x44 SWAP2 DUP8 SWAP2 PUSH1 0x40 MLOAD SWAP3 PUSH4 0x207D7F3 PUSH1 0xE4 SHL DUP5 MSTORE PUSH1 0x4 DUP5 ADD MSTORE DUP3 ADD MSTORE REVERT JUMPDEST SWAP1 SWAP2 POP DUP8 DUP2 DUP2 RETURNDATASIZE DUP4 GT PUSH2 0x623 JUMPI JUMPDEST PUSH2 0x613 DUP2 DUP4 PUSH2 0x1317 JUMP JUMPDEST DUP2 ADD SUB SLT PUSH2 0x1A4 JUMPI MLOAD SWAP1 DUP12 PUSH2 0x4FE JUMP JUMPDEST POP RETURNDATASIZE PUSH2 0x609 JUMP JUMPDEST PUSH1 0x40 MLOAD RETURNDATASIZE PUSH1 0x0 DUP3 RETURNDATACOPY RETURNDATASIZE SWAP1 REVERT JUMPDEST PUSH1 0x40 MLOAD PUSH3 0xC85FBD PUSH1 0xE3 SHL DUP2 MSTORE PUSH1 0x4 DUP2 ADD DUP9 SWAP1 MSTORE SWAP2 DUP3 ADD MSTORE PUSH1 0x44 SWAP1 REVERT JUMPDEST POP PUSH4 0x4E487B71 PUSH1 0xE0 SHL PUSH1 0x0 SWAP1 DUP2 MSTORE PUSH1 0x11 PUSH1 0x4 MSTORE REVERT JUMPDEST PUSH1 0x0 DUP4 SSTORE PUSH3 0x15180 TIMESTAMP ADD SWAP1 DUP2 TIMESTAMP GT PUSH2 0x680 JUMPI SSTORE DUP11 PUSH2 0x4AF JUMP JUMPDEST DUP3 PUSH4 0x4E487B71 PUSH1 0xE0 SHL PUSH1 0x0 MSTORE PUSH1 0x11 PUSH1 0x4 MSTORE PUSH1 0x0 REVERT JUMPDEST PUSH1 0x40 MLOAD PUSH4 0x2472AD41 PUSH1 0xE2 SHL DUP2 MSTORE PUSH1 0x4 DUP2 ADD DUP10 SWAP1 MSTORE REVERT JUMPDEST DUP5 PUSH1 0x44 SWAP2 DUP8 PUSH1 0x40 MLOAD SWAP3 PUSH4 0x94521A69 PUSH1 0xE0 SHL DUP5 MSTORE PUSH1 0x4 DUP5 ADD MSTORE DUP3 ADD MSTORE REVERT JUMPDEST PUSH1 0x40 MLOAD PUSH4 0xEA1083A7 PUSH1 0xE0 SHL DUP2 MSTORE PUSH1 0x4 SWAP1 REVERT JUMPDEST PUSH1 0x40 MLOAD PUSH4 0x2C98ACEF PUSH1 0xE1 SHL DUP2 MSTORE PUSH1 0x4 SWAP1 REVERT JUMPDEST PUSH1 0x40 MLOAD PUSH4 0x1D8730D1 PUSH1 0xE3 SHL DUP2 MSTORE PUSH1 0x4 SWAP1 REVERT JUMPDEST CALLVALUE PUSH2 0x1A4 JUMPI PUSH1 0x0 CALLDATASIZE PUSH1 0x3 NOT ADD SLT PUSH2 0x1A4 JUMPI PUSH1 0x20 PUSH1 0x40 MLOAD PUSH1 0x0 DUP2 MSTORE RETURN JUMPDEST CALLVALUE PUSH2 0x1A4 JUMPI PUSH1 0x0 CALLDATASIZE PUSH1 0x3 NOT ADD SLT PUSH2 0x1A4 JUMPI PUSH1 0x3 SLOAD PUSH1 0x40 MLOAD PUSH1 0x1 PUSH1 0x1 PUSH1 0xA0 SHL SUB SWAP1 SWAP2 AND DUP2 MSTORE PUSH1 0x20 SWAP1 RETURN JUMPDEST CALLVALUE PUSH2 0x1A4 JUMPI PUSH1 0x40 CALLDATASIZE PUSH1 0x3 NOT ADD SLT PUSH2 0x1A4 JUMPI PUSH2 0x75C PUSH2 0x1080 JUMP JUMPDEST PUSH1 0x24 CALLDATALOAD PUSH2 0x767 PUSH2 0x110B JUMP JUMPDEST PUSH2 0x76F PUSH2 0x13E5 JUMP JUMPDEST PUSH1 0x3 SLOAD PUSH1 0x1 PUSH1 0x1 PUSH1 0xA0 SHL SUB SWAP1 DUP2 AND DUP1 ISZERO PUSH2 0x6EC JUMPI PUSH32 0x3AB9DB27A4CDD8C603A752B62D5FBD93B4B3509FE2596708E9688E42BBAC3576 SWAP2 PUSH2 0x7B2 DUP5 DUP7 PUSH1 0x20 SWAP5 PUSH2 0x134F JUMP JUMPDEST PUSH1 0x40 MLOAD SWAP4 DUP5 MSTORE CALLER SWAP5 AND SWAP3 LOG3 PUSH1 0x1 PUSH1 0x2 SSTORE STOP JUMPDEST CALLVALUE PUSH2 0x1A4 JUMPI PUSH1 0x40 CALLDATASIZE PUSH1 0x3 NOT ADD SLT PUSH2 0x1A4 JUMPI PUSH2 0x7DD PUSH2 0x1096 JUMP JUMPDEST PUSH1 0x4 CALLDATALOAD PUSH1 0x0 MSTORE PUSH1 0x0 PUSH1 0x20 MSTORE PUSH1 0x40 PUSH1 0x0 KECCAK256 SWAP1 PUSH1 0x1 DUP1 PUSH1 0xA0 SHL SUB AND PUSH1 0x0 MSTORE PUSH1 0x20 MSTORE PUSH1 0x20 PUSH1 0xFF PUSH1 0x40 PUSH1 0x0 KECCAK256 SLOAD AND PUSH1 0x40 MLOAD SWAP1 ISZERO ISZERO DUP2 MSTORE RETURN JUMPDEST CALLVALUE PUSH2 0x1A4 JUMPI PUSH1 0x20 CALLDATASIZE PUSH1 0x3 NOT ADD SLT PUSH2 0x1A4 JUMPI PUSH1 0x1 PUSH1 0x1 PUSH1 0xA0 SHL SUB PUSH2 0x832 PUSH2 0x1080 JUMP JUMPDEST AND PUSH1 0x0 MSTORE PUSH1 0x7 PUSH1 0x20 MSTORE PUSH1 0x40 DUP1 PUSH1 0x0 KECCAK256 PUSH1 0x1 DUP2 SLOAD SWAP2 ADD SLOAD DUP3 MLOAD SWAP2 DUP3 MSTORE PUSH1 0x20 DUP3 ADD MSTORE RETURN JUMPDEST CALLVALUE PUSH2 0x1A4 JUMPI PUSH1 0x80 CALLDATASIZE PUSH1 0x3 NOT ADD SLT PUSH2 0x1A4 JUMPI PUSH1 0x4 CALLDATALOAD PUSH8 0xFFFFFFFFFFFFFFFF DUP2 GT PUSH2 0x1A4 JUMPI PUSH2 0x885 SWAP1 CALLDATASIZE SWAP1 PUSH1 0x4 ADD PUSH2 0x10AC JUMP JUMPDEST SWAP1 PUSH1 0x24 CALLDATALOAD PUSH8 0xFFFFFFFFFFFFFFFF DUP2 GT PUSH2 0x1A4 JUMPI PUSH2 0x8A6 SWAP1 CALLDATASIZE SWAP1 PUSH1 0x4 ADD PUSH2 0x10AC JUMP JUMPDEST SWAP3 SWAP1 PUSH1 0x44 DUP1 CALLDATALOAD PUSH8 0xFFFFFFFFFFFFFFFF DUP2 GT PUSH2 0x1A4 JUMPI PUSH2 0x8C9 SWAP1 CALLDATASIZE SWAP1 PUSH1 0x4 ADD PUSH2 0x10AC JUMP JUMPDEST SWAP4 SWAP1 SWAP6 PUSH1 0x64 CALLDATALOAD PUSH8 0xFFFFFFFFFFFFFFFF DUP2 GT PUSH2 0x1A4 JUMPI PUSH2 0x8EC SWAP1 CALLDATASIZE SWAP1 PUSH1 0x4 ADD PUSH2 0x10AC JUMP JUMPDEST SWAP5 SWAP1 SWAP3 PUSH2 0x8F7 PUSH2 0x1163 JUMP JUMPDEST PUSH2 0x8FF PUSH2 0x12F9 JUMP JUMPDEST PUSH2 0x907 PUSH2 0x13E5 JUMP JUMPDEST DUP3 DUP2 EQ DUP1 PUSH2 0xC60 JUMPI JUMPDEST DUP1 PUSH2 0xC57 JUMPI JUMPDEST ISZERO PUSH2 0xC1B JUMPI PUSH1 0x32 DUP2 GT PUSH2 0xBE5 JUMPI PUSH1 0x0 JUMPDEST DUP2 DUP2 LT PUSH2 0x934 JUMPI PUSH1 0x1 PUSH1 0x2 SSTORE STOP JUMPDEST PUSH2 0x93F DUP2 DUP4 DUP12 PUSH2 0x1422 JUMP JUMPDEST CALLDATALOAD PUSH1 0x1 PUSH1 0x1 PUSH1 0xA0 SHL SUB DUP2 AND DUP2 SUB PUSH2 0x1A4 JUMPI DUP11 PUSH2 0x968 DUP4 DUP12 PUSH2 0x961 DUP3 DUP11 DUP11 PUSH2 0x1422 JUMP JUMPDEST CALLDATALOAD SWAP4 PUSH2 0x1422 JUMP JUMPDEST CALLDATALOAD SWAP1 DUP10 DUP5 LT ISZERO PUSH2 0xBCF JUMPI DUP4 PUSH1 0x5 SHL DUP9 ADD CALLDATALOAD PUSH1 0x1E NOT DUP10 CALLDATASIZE SUB ADD DUP2 SLT ISZERO PUSH2 0x1A4 JUMPI DUP9 ADD SWAP1 PUSH8 0xFFFFFFFFFFFFFFFF DUP3 CALLDATALOAD GT PUSH2 0x1A4 JUMPI DUP2 CALLDATALOAD CALLDATASIZE SUB PUSH1 0x20 DUP4 ADD SGT PUSH2 0x1A4 JUMPI PUSH1 0x3 SLOAD PUSH1 0x1 PUSH1 0x1 PUSH1 0xA0 SHL SUB AND ISZERO PUSH2 0x6EC JUMPI PUSH1 0x1 PUSH1 0x1 PUSH1 0xA0 SHL SUB DUP5 AND ISZERO PUSH2 0x6DA JUMPI DUP1 ISZERO PUSH2 0x6C8 JUMPI PUSH10 0x152D02C7E14AF6800000 DUP1 DUP3 GT PUSH2 0xBB2 JUMPI POP CALLER PUSH1 0x0 MSTORE PUSH1 0x6 PUSH1 0x20 MSTORE PUSH1 0x40 PUSH1 0x0 KECCAK256 DUP4 PUSH1 0x0 MSTORE PUSH1 0x20 MSTORE PUSH1 0xFF PUSH1 0x40 PUSH1 0x0 KECCAK256 SLOAD AND PUSH2 0xB99 JUMPI PUSH1 0x1 PUSH1 0x1 PUSH1 0xA0 SHL SUB DUP5 AND PUSH1 0x0 SWAP1 DUP2 MSTORE PUSH1 0x7 PUSH1 0x20 MSTORE PUSH1 0x40 SWAP1 KECCAK256 PUSH1 0x1 DUP2 ADD DUP1 SLOAD TIMESTAMP LT ISZERO PUSH2 0xB80 JUMPI JUMPDEST POP DUP1 SLOAD PUSH10 0x21E19E0C9BAB2400000 SWAP1 DUP2 SUB SWAP1 DUP2 GT PUSH2 0xB6A JUMPI DUP1 DUP4 GT PUSH2 0xB4E JUMPI POP PUSH2 0xB2C SWAP6 SWAP5 SWAP4 SWAP3 SWAP2 PUSH32 0xAA715B109AA36FD2FE37FC46F2C7C7C2B3D52ED90E6D6D150DCDCA119D519B88 SWAP2 CALLER PUSH1 0x0 MSTORE PUSH1 0x6 PUSH1 0x20 MSTORE PUSH1 0x40 PUSH1 0x0 KECCAK256 DUP6 PUSH1 0x0 MSTORE PUSH1 0x20 MSTORE PUSH1 0x40 PUSH1 0x0 KECCAK256 SWAP1 PUSH1 0xFF NOT SWAP2 PUSH1 0x1 DUP4 DUP3 SLOAD AND OR SWAP1 SSTORE PUSH2 0xAA5 DUP4 DUP3 SLOAD PUSH2 0x1406 JUMP JUMPDEST SWAP1 SSTORE PUSH2 0xAB3 DUP3 PUSH1 0x4 SLOAD PUSH2 0x1406 JUMP JUMPDEST PUSH1 0x4 SSTORE PUSH1 0x1 PUSH1 0x1 PUSH1 0xA0 SHL SUB DUP7 AND PUSH1 0x0 SWAP1 DUP2 MSTORE PUSH1 0x8 PUSH1 0x20 MSTORE PUSH1 0x40 SWAP1 KECCAK256 DUP1 SLOAD SWAP1 SWAP2 PUSH1 0xFF DUP3 AND ISZERO PUSH2 0xB31 JUMPI JUMPDEST POP POP PUSH1 0x3 SLOAD PUSH2 0xAF8 SWAP2 POP DUP3 SWAP1 DUP8 SWAP1 PUSH1 0x1 PUSH1 0x1 PUSH1 0xA0 SHL SUB AND PUSH2 0x134F JUMP JUMPDEST PUSH1 0x40 MLOAD SWAP1 DUP2 MSTORE PUSH1 0x40 PUSH1 0x20 DUP3 ADD MSTORE DUP1 PUSH2 0xB24 CALLER SWAP7 PUSH1 0x1 DUP1 PUSH1 0xA0 SHL SUB AND SWAP5 PUSH1 0x40 DUP4 ADD SWAP1 PUSH1 0x20 DUP2 CALLDATALOAD SWAP2 ADD PUSH2 0x12D8 JUMP JUMPDEST SUB SWAP1 LOG4 PUSH2 0x1413 JUMP JUMPDEST PUSH2 0x926 JUMP JUMPDEST PUSH1 0x1 SWAP2 AND OR SWAP1 SSTORE PUSH2 0xB43 PUSH1 0x5 SLOAD PUSH2 0x1413 JUMP JUMPDEST PUSH1 0x5 SSTORE CODESIZE DUP1 DUP1 PUSH2 0xADC JUMP JUMPDEST DUP3 DUP13 SWAP2 PUSH1 0x40 MLOAD SWAP2 PUSH3 0xC85FBD PUSH1 0xE3 SHL DUP4 MSTORE PUSH1 0x4 DUP4 ADD MSTORE PUSH1 0x24 DUP3 ADD MSTORE REVERT JUMPDEST PUSH4 0x4E487B71 PUSH1 0xE0 SHL PUSH1 0x0 MSTORE PUSH1 0x11 PUSH1 0x4 MSTORE PUSH1 0x24 PUSH1 0x0 REVERT JUMPDEST PUSH1 0x0 DUP3 SSTORE PUSH3 0x15180 TIMESTAMP ADD SWAP1 DUP2 TIMESTAMP GT PUSH2 0xB6A JUMPI SSTORE DUP16 PUSH2 0xA28 JUMP JUMPDEST PUSH1 0x40 MLOAD PUSH4 0x2472AD41 PUSH1 0xE2 SHL DUP2 MSTORE PUSH1 0x4 DUP2 ADD DUP5 SWAP1 MSTORE PUSH1 0x24 SWAP1 REVERT JUMPDEST DUP11 SWAP3 POP PUSH1 0x40 MLOAD SWAP2 PUSH4 0x94521A69 PUSH1 0xE0 SHL DUP4 MSTORE PUSH1 0x4 DUP4 ADD MSTORE PUSH1 0x24 DUP3 ADD MSTORE REVERT JUMPDEST PUSH4 0x4E487B71 PUSH1 0xE0 SHL PUSH1 0x0 MSTORE PUSH1 0x32 PUSH1 0x4 MSTORE PUSH1 0x24 PUSH1 0x0 REVERT JUMPDEST PUSH1 0x40 MLOAD PUSH3 0x461BCD PUSH1 0xE5 SHL DUP2 MSTORE PUSH1 0x20 PUSH1 0x4 DUP3 ADD MSTORE PUSH1 0xF PUSH1 0x24 DUP3 ADD MSTORE PUSH15 0x426174636820746F6F206C61726765 PUSH1 0x88 SHL DUP2 DUP8 ADD MSTORE PUSH1 0x64 SWAP1 REVERT JUMPDEST PUSH1 0x40 MLOAD PUSH3 0x461BCD PUSH1 0xE5 SHL DUP2 MSTORE PUSH1 0x20 PUSH1 0x4 DUP3 ADD MSTORE PUSH1 0x15 PUSH1 0x24 DUP3 ADD MSTORE PUSH21 0x82E4E4C2F240D8CADCCEE8D040DAD2E6DAC2E8C6D PUSH1 0x5B SHL DUP2 DUP8 ADD MSTORE PUSH1 0x64 SWAP1 REVERT JUMPDEST POP DUP6 DUP2 EQ PUSH2 0x916 JUMP JUMPDEST POP DUP7 DUP2 EQ PUSH2 0x910 JUMP JUMPDEST CALLVALUE PUSH2 0x1A4 JUMPI PUSH1 0x20 CALLDATASIZE PUSH1 0x3 NOT ADD SLT PUSH2 0x1A4 JUMPI PUSH1 0x1 PUSH1 0x1 PUSH1 0xA0 SHL SUB PUSH2 0xC8A PUSH2 0x1080 JUMP JUMPDEST AND PUSH1 0x0 MSTORE PUSH1 0x8 PUSH1 0x20 MSTORE PUSH1 0x20 PUSH1 0xFF PUSH1 0x40 PUSH1 0x0 KECCAK256 SLOAD AND PUSH1 0x40 MLOAD SWAP1 ISZERO ISZERO DUP2 MSTORE RETURN JUMPDEST CALLVALUE PUSH2 0x1A4 JUMPI PUSH1 0x0 CALLDATASIZE PUSH1 0x3 NOT ADD SLT PUSH2 0x1A4 JUMPI PUSH1 0x20 PUSH1 0xFF PUSH1 0x1 SLOAD AND PUSH1 0x40 MLOAD SWAP1 ISZERO ISZERO DUP2 MSTORE RETURN JUMPDEST CALLVALUE PUSH2 0x1A4 JUMPI PUSH1 0x0 CALLDATASIZE PUSH1 0x3 NOT ADD SLT PUSH2 0x1A4 JUMPI PUSH2 0xCE4 PUSH2 0x110B JUMP JUMPDEST PUSH1 0x1 SLOAD PUSH1 0xFF DUP2 AND ISZERO PUSH2 0xD49 JUMPI PUSH1 0xFF NOT AND PUSH1 0x1 SSTORE PUSH32 0x5DB9EE0A495BF2E6FF9C91A7834C1BA4FDD244A5E8AA4E537BD38AEAE4B073AA PUSH1 0x20 PUSH1 0x40 MLOAD CALLER DUP2 MSTORE LOG1 CALLER PUSH32 0x306CA22C455FE433EBBF0542BBF947EA6A725495F9E1043DB2A47E3C57940385 PUSH1 0x0 DUP1 LOG2 STOP JUMPDEST PUSH1 0x40 MLOAD PUSH4 0x8DFC202B PUSH1 0xE0 SHL DUP2 MSTORE PUSH1 0x4 SWAP1 REVERT JUMPDEST CALLVALUE PUSH2 0x1A4 JUMPI PUSH1 0x0 CALLDATASIZE PUSH1 0x3 NOT ADD SLT PUSH2 0x1A4 JUMPI PUSH1 0x4 SLOAD PUSH1 0x5 SLOAD PUSH1 0x3 SLOAD PUSH1 0x1 PUSH1 0x1 PUSH1 0xA0 SHL SUB AND SWAP2 SWAP1 DUP3 ISZERO PUSH2 0xDFC JUMPI PUSH1 0x20 PUSH1 0x24 SWAP4 PUSH1 0x40 MLOAD SWAP5 DUP6 DUP1 SWAP3 PUSH4 0x70A08231 PUSH1 0xE0 SHL DUP3 MSTORE ADDRESS PUSH1 0x4 DUP4 ADD MSTORE GAS STATICCALL DUP1 ISZERO PUSH2 0x62A JUMPI PUSH1 0x0 SWAP1 PUSH2 0xDCA JUMPI JUMPDEST PUSH1 0x60 SWAP4 POP SWAP1 JUMPDEST PUSH1 0x40 MLOAD SWAP3 DUP4 MSTORE PUSH1 0x20 DUP4 ADD MSTORE PUSH1 0x40 DUP3 ADD MSTORE RETURN JUMPDEST POP PUSH1 0x20 DUP4 RETURNDATASIZE DUP3 GT PUSH2 0xDF4 JUMPI JUMPDEST DUP2 PUSH2 0xDE3 PUSH1 0x20 SWAP4 DUP4 PUSH2 0x1317 JUMP JUMPDEST DUP2 ADD SUB SLT PUSH2 0x1A4 JUMPI PUSH1 0x60 SWAP3 MLOAD PUSH2 0xDB2 JUMP JUMPDEST RETURNDATASIZE SWAP2 POP PUSH2 0xDD6 JUMP JUMPDEST PUSH1 0x60 SWAP3 POP PUSH1 0x0 SWAP1 PUSH2 0xDB8 JUMP JUMPDEST CALLVALUE PUSH2 0x1A4 JUMPI PUSH1 0x40 CALLDATASIZE PUSH1 0x3 NOT ADD SLT PUSH2 0x1A4 JUMPI PUSH2 0xE21 PUSH2 0x1096 JUMP JUMPDEST CALLER PUSH1 0x1 PUSH1 0x1 PUSH1 0xA0 SHL SUB DUP3 AND SUB PUSH2 0xE3D JUMPI PUSH2 0x224 SWAP1 PUSH1 0x4 CALLDATALOAD PUSH2 0x1263 JUMP JUMPDEST PUSH1 0x40 MLOAD PUSH4 0x334BD919 PUSH1 0xE1 SHL DUP2 MSTORE PUSH1 0x4 SWAP1 REVERT JUMPDEST CALLVALUE PUSH2 0x1A4 JUMPI PUSH1 0x0 CALLDATASIZE PUSH1 0x3 NOT ADD SLT PUSH2 0x1A4 JUMPI PUSH1 0x20 PUSH2 0xE6A PUSH2 0x1432 JUMP JUMPDEST PUSH1 0x40 MLOAD SWAP1 DUP2 MSTORE RETURN JUMPDEST CALLVALUE PUSH2 0x1A4 JUMPI PUSH1 0x0 CALLDATASIZE PUSH1 0x3 NOT ADD SLT PUSH2 0x1A4 JUMPI PUSH1 0x20 PUSH1 0x40 MLOAD PUSH10 0x152D02C7E14AF6800000 DUP2 MSTORE RETURN JUMPDEST CALLVALUE PUSH2 0x1A4 JUMPI PUSH1 0x40 CALLDATASIZE PUSH1 0x3 NOT ADD SLT PUSH2 0x1A4 JUMPI PUSH2 0x224 PUSH1 0x4 CALLDATALOAD PUSH2 0xEB6 PUSH2 0x1096 JUMP JUMPDEST SWAP1 DUP1 PUSH1 0x0 MSTORE PUSH1 0x0 PUSH1 0x20 MSTORE PUSH2 0xED1 PUSH1 0x1 PUSH1 0x40 PUSH1 0x0 KECCAK256 ADD SLOAD PUSH2 0x11BF JUMP JUMPDEST PUSH2 0x11E5 JUMP JUMPDEST CALLVALUE PUSH2 0x1A4 JUMPI PUSH1 0x0 CALLDATASIZE PUSH1 0x3 NOT ADD SLT PUSH2 0x1A4 JUMPI PUSH1 0x20 PUSH1 0x40 MLOAD PUSH10 0x21E19E0C9BAB2400000 DUP2 MSTORE RETURN JUMPDEST CALLVALUE PUSH2 0x1A4 JUMPI PUSH1 0x20 CALLDATASIZE PUSH1 0x3 NOT ADD SLT PUSH2 0x1A4 JUMPI PUSH2 0xF14 PUSH2 0x1080 JUMP JUMPDEST PUSH2 0xF1C PUSH2 0x110B JUMP JUMPDEST PUSH1 0x3 SLOAD SWAP1 PUSH1 0x1 PUSH1 0x1 PUSH1 0xA0 SHL SUB SWAP1 DUP2 DUP4 AND PUSH2 0xF82 JUMPI AND SWAP1 DUP2 ISZERO PUSH2 0xF70 JUMPI PUSH1 0x1 PUSH1 0x1 PUSH1 0xA0 SHL SUB NOT AND DUP2 OR PUSH1 0x3 SSTORE CALLER SWAP1 PUSH32 0xB91B059EC6EFFDBC3104CD63853C5F0C247E5732327F1CCE6D35E2081211B2D1 PUSH1 0x0 DUP1 LOG3 STOP JUMPDEST PUSH1 0x40 MLOAD PUSH4 0x6B093AAD PUSH1 0xE0 SHL DUP2 MSTORE PUSH1 0x4 SWAP1 REVERT JUMPDEST PUSH1 0x40 MLOAD PUSH4 0x43EFD39D PUSH1 0xE0 SHL DUP2 MSTORE PUSH1 0x4 SWAP1 REVERT JUMPDEST CALLVALUE PUSH2 0x1A4 JUMPI PUSH1 0x0 CALLDATASIZE PUSH1 0x3 NOT ADD SLT PUSH2 0x1A4 JUMPI PUSH1 0x20 PUSH1 0x40 MLOAD PUSH32 0x55435DD261A4B9B3364963F7738A7A662AD9C84396D64BE3365284BB7F0A5041 DUP2 MSTORE RETURN JUMPDEST CALLVALUE PUSH2 0x1A4 JUMPI PUSH1 0x20 CALLDATASIZE PUSH1 0x3 NOT ADD SLT PUSH2 0x1A4 JUMPI PUSH1 0x4 CALLDATALOAD PUSH1 0x0 MSTORE PUSH1 0x0 PUSH1 0x20 MSTORE PUSH1 0x20 PUSH1 0x1 PUSH1 0x40 PUSH1 0x0 KECCAK256 ADD SLOAD PUSH1 0x40 MLOAD SWAP1 DUP2 MSTORE RETURN JUMPDEST CALLVALUE PUSH2 0x1A4 JUMPI PUSH1 0x20 CALLDATASIZE PUSH1 0x3 NOT ADD SLT PUSH2 0x1A4 JUMPI PUSH1 0x40 PUSH2 0x1021 PUSH2 0x101C PUSH2 0x1080 JUMP JUMPDEST PUSH2 0x14AB JUMP JUMPDEST DUP3 MLOAD SWAP2 DUP3 MSTORE PUSH1 0x20 DUP3 ADD MSTORE RETURN JUMPDEST CALLVALUE PUSH2 0x1A4 JUMPI PUSH1 0x20 CALLDATASIZE PUSH1 0x3 NOT ADD SLT PUSH2 0x1A4 JUMPI PUSH1 0x4 CALLDATALOAD SWAP1 PUSH4 0xFFFFFFFF PUSH1 0xE0 SHL DUP3 AND DUP1 SWAP3 SUB PUSH2 0x1A4 JUMPI PUSH1 0x20 SWAP2 PUSH4 0x7965DB0B PUSH1 0xE0 SHL DUP2 EQ SWAP1 DUP2 ISZERO PUSH2 0x106F JUMPI JUMPDEST POP ISZERO ISZERO DUP2 MSTORE RETURN JUMPDEST PUSH4 0x1FFC9A7 PUSH1 0xE0 SHL EQ SWAP1 POP DUP4 PUSH2 0x1068 JUMP JUMPDEST PUSH1 0x4 CALLDATALOAD SWAP1 PUSH1 0x1 PUSH1 0x1 PUSH1 0xA0 SHL SUB DUP3 AND DUP3 SUB PUSH2 0x1A4 JUMPI JUMP JUMPDEST PUSH1 0x24 CALLDATALOAD SWAP1 PUSH1 0x1 PUSH1 0x1 PUSH1 0xA0 SHL SUB DUP3 AND DUP3 SUB PUSH2 0x1A4 JUMPI JUMP JUMPDEST SWAP2 DUP2 PUSH1 0x1F DUP5 ADD SLT ISZERO PUSH2 0x1A4 JUMPI DUP3 CALLDATALOAD SWAP2 PUSH8 0xFFFFFFFFFFFFFFFF DUP4 GT PUSH2 0x1A4 JUMPI PUSH1 0x20 DUP1 DUP6 ADD SWAP5 DUP5 PUSH1 0x5 SHL ADD ADD GT PUSH2 0x1A4 JUMPI JUMP JUMPDEST SWAP2 DUP2 PUSH1 0x1F DUP5 ADD SLT ISZERO PUSH2 0x1A4 JUMPI DUP3 CALLDATALOAD SWAP2 PUSH8 0xFFFFFFFFFFFFFFFF DUP4 GT PUSH2 0x1A4 JUMPI PUSH1 0x20 DUP4 DUP2 DUP7 ADD SWAP6 ADD ADD GT PUSH2 0x1A4 JUMPI JUMP JUMPDEST CALLER PUSH1 0x0 SWAP1 DUP2 MSTORE PUSH32 0xAD3228B676F7D3CD4284A5443F17F1962B36E491B30A40B2405849E597BA5FB5 PUSH1 0x20 MSTORE PUSH1 0x40 DUP2 KECCAK256 SLOAD PUSH1 0xFF AND ISZERO PUSH2 0x1145 JUMPI POP JUMP JUMPDEST PUSH1 0x44 SWAP1 PUSH1 0x40 MLOAD SWAP1 PUSH4 0xE2517D3F PUSH1 0xE0 SHL DUP3 MSTORE CALLER PUSH1 0x4 DUP4 ADD MSTORE PUSH1 0x24 DUP3 ADD MSTORE REVERT JUMPDEST CALLER PUSH1 0x0 SWAP1 DUP2 MSTORE PUSH32 0xEE57CD81E84075558E8FCC182A1F4393F91FC97F963A136E66B7F949A62F319F PUSH1 0x20 MSTORE PUSH1 0x40 SWAP1 KECCAK256 SLOAD PUSH32 0x97667070C54EF182B0F5858B034BEAC1B6F3089AA2D3188BB1E8929F4FA9B929 SWAP1 PUSH1 0xFF AND ISZERO PUSH2 0x1145 JUMPI POP JUMP JUMPDEST DUP1 PUSH1 0x0 MSTORE PUSH1 0x0 PUSH1 0x20 MSTORE PUSH1 0x40 PUSH1 0x0 KECCAK256 CALLER PUSH1 0x0 MSTORE PUSH1 0x20 MSTORE PUSH1 0xFF PUSH1 0x40 PUSH1 0x0 KECCAK256 SLOAD AND ISZERO PUSH2 0x1145 JUMPI POP JUMP JUMPDEST SWAP1 PUSH1 0x0 SWAP2 DUP1 DUP4 MSTORE DUP3 PUSH1 0x20 MSTORE PUSH1 0x40 DUP4 KECCAK256 SWAP2 PUSH1 0x1 DUP1 PUSH1 0xA0 SHL SUB AND SWAP2 DUP3 DUP5 MSTORE PUSH1 0x20 MSTORE PUSH1 0xFF PUSH1 0x40 DUP5 KECCAK256 SLOAD AND ISZERO PUSH1 0x0 EQ PUSH2 0x125E JUMPI DUP1 DUP4 MSTORE DUP3 PUSH1 0x20 MSTORE PUSH1 0x40 DUP4 KECCAK256 DUP3 DUP5 MSTORE PUSH1 0x20 MSTORE PUSH1 0x40 DUP4 KECCAK256 PUSH1 0x1 PUSH1 0xFF NOT DUP3 SLOAD AND OR SWAP1 SSTORE PUSH32 0x2F8788117E7EFF1D82E926EC794901D17C78024A50270940304540A733656F0D CALLER SWAP4 DUP1 LOG4 PUSH1 0x1 SWAP1 JUMP JUMPDEST POP POP SWAP1 JUMP JUMPDEST SWAP1 PUSH1 0x0 SWAP2 DUP1 DUP4 MSTORE DUP3 PUSH1 0x20 MSTORE PUSH1 0x40 DUP4 KECCAK256 SWAP2 PUSH1 0x1 DUP1 PUSH1 0xA0 SHL SUB AND SWAP2 DUP3 DUP5 MSTORE PUSH1 0x20 MSTORE PUSH1 0xFF PUSH1 0x40 DUP5 KECCAK256 SLOAD AND PUSH1 0x0 EQ PUSH2 0x125E JUMPI DUP1 DUP4 MSTORE DUP3 PUSH1 0x20 MSTORE PUSH1 0x40 DUP4 KECCAK256 DUP3 DUP5 MSTORE PUSH1 0x20 MSTORE PUSH1 0x40 DUP4 KECCAK256 PUSH1 0xFF NOT DUP2 SLOAD AND SWAP1 SSTORE PUSH32 0xF6391F5C32D9C69D2A47EA670B442974B53935D1EDC7FD64EB21E047A839171B CALLER SWAP4 DUP1 LOG4 PUSH1 0x1 SWAP1 JUMP JUMPDEST SWAP1 DUP1 PUSH1 0x20 SWAP4 SWAP3 DUP2 DUP5 MSTORE DUP5 DUP5 ADD CALLDATACOPY PUSH1 0x0 DUP3 DUP3 ADD DUP5 ADD MSTORE PUSH1 0x1F ADD PUSH1 0x1F NOT AND ADD ADD SWAP1 JUMP JUMPDEST PUSH1 0xFF PUSH1 0x1 SLOAD AND PUSH2 0x1305 JUMPI JUMP JUMPDEST PUSH1 0x40 MLOAD PUSH4 0xD93C0665 PUSH1 0xE0 SHL DUP2 MSTORE PUSH1 0x4 SWAP1 REVERT JUMPDEST SWAP1 PUSH1 0x1F DUP1 NOT SWAP2 ADD AND DUP2 ADD SWAP1 DUP2 LT PUSH8 0xFFFFFFFFFFFFFFFF DUP3 GT OR PUSH2 0x1339 JUMPI PUSH1 0x40 MSTORE JUMP JUMPDEST PUSH4 0x4E487B71 PUSH1 0xE0 SHL PUSH1 0x0 MSTORE PUSH1 0x41 PUSH1 0x4 MSTORE PUSH1 0x24 PUSH1 0x0 REVERT JUMPDEST PUSH1 0x40 MLOAD PUSH4 0xA9059CBB PUSH1 0xE0 SHL PUSH1 0x20 DUP3 ADD SWAP1 DUP2 MSTORE PUSH1 0x1 PUSH1 0x1 PUSH1 0xA0 SHL SUB SWAP4 DUP5 AND PUSH1 0x24 DUP4 ADD MSTORE PUSH1 0x44 DUP1 DUP4 ADD SWAP6 SWAP1 SWAP6 MSTORE SWAP4 DUP2 MSTORE SWAP1 SWAP3 PUSH1 0x80 DUP3 ADD SWAP1 PUSH8 0xFFFFFFFFFFFFFFFF DUP3 GT DUP4 DUP4 LT OR PUSH2 0x1339 JUMPI PUSH1 0x20 SWAP3 PUSH1 0x0 SWAP3 PUSH1 0x40 MSTORE MLOAD SWAP1 DUP3 DUP7 GAS CALL ISZERO PUSH2 0x62A JUMPI PUSH1 0x0 MLOAD RETURNDATASIZE PUSH2 0x13DC JUMPI POP DUP1 DUP3 AND EXTCODESIZE ISZERO JUMPDEST PUSH2 0x13C2 JUMPI POP POP JUMP JUMPDEST PUSH1 0x40 MLOAD PUSH4 0x5274AFE7 PUSH1 0xE0 SHL DUP2 MSTORE SWAP2 AND PUSH1 0x4 DUP3 ADD MSTORE PUSH1 0x24 SWAP2 POP REVERT JUMPDEST PUSH1 0x1 EQ ISZERO PUSH2 0x13BA JUMP JUMPDEST PUSH1 0x2 DUP1 SLOAD EQ PUSH2 0x13F4 JUMPI PUSH1 0x2 DUP1 SSTORE JUMP JUMPDEST PUSH1 0x40 MLOAD PUSH4 0x3EE5AEB5 PUSH1 0xE0 SHL DUP2 MSTORE PUSH1 0x4 SWAP1 REVERT JUMPDEST SWAP2 SWAP1 DUP3 ADD DUP1 SWAP3 GT PUSH2 0xB6A JUMPI JUMP JUMPDEST PUSH1 0x0 NOT DUP2 EQ PUSH2 0xB6A JUMPI PUSH1 0x1 ADD SWAP1 JUMP JUMPDEST SWAP2 SWAP1 DUP2 LT ISZERO PUSH2 0xBCF JUMPI PUSH1 0x5 SHL ADD SWAP1 JUMP JUMPDEST PUSH1 0x3 SLOAD PUSH1 0x1 PUSH1 0x1 PUSH1 0xA0 SHL SUB AND DUP1 ISZERO PUSH2 0x14A5 JUMPI PUSH1 0x20 PUSH1 0x24 SWAP2 PUSH1 0x40 MLOAD SWAP3 DUP4 DUP1 SWAP3 PUSH4 0x70A08231 PUSH1 0xE0 SHL DUP3 MSTORE ADDRESS PUSH1 0x4 DUP4 ADD MSTORE GAS STATICCALL SWAP1 DUP2 ISZERO PUSH2 0x62A JUMPI PUSH1 0x0 SWAP2 PUSH2 0x1474 JUMPI POP SWAP1 JUMP JUMPDEST SWAP1 PUSH1 0x20 DUP3 RETURNDATASIZE DUP3 GT PUSH2 0x149D JUMPI JUMPDEST DUP2 PUSH2 0x148D PUSH1 0x20 SWAP4 DUP4 PUSH2 0x1317 JUMP JUMPDEST DUP2 ADD SUB SLT PUSH2 0x149A JUMPI POP MLOAD SWAP1 JUMP JUMPDEST DUP1 REVERT JUMPDEST RETURNDATASIZE SWAP2 POP PUSH2 0x1480 JUMP JUMPDEST POP PUSH1 0x0 SWAP1 JUMP JUMPDEST PUSH1 0x1 PUSH1 0x1 PUSH1 0xA0 SHL SUB AND PUSH1 0x0 SWAP1 DUP2 MSTORE PUSH1 0x7 PUSH1 0x20 MSTORE PUSH1 0x40 DUP1 DUP3 KECCAK256 DUP2 MLOAD SWAP3 SWAP4 SWAP3 SWAP2 DUP3 ADD PUSH8 0xFFFFFFFFFFFFFFFF DUP2 GT DUP4 DUP3 LT OR PUSH2 0x1549 JUMPI PUSH1 0x40 MSTORE DUP1 SLOAD DUP3 MSTORE PUSH1 0x1 ADD SLOAD PUSH1 0x20 DUP3 ADD DUP2 DUP2 MSTORE SWAP2 SWAP1 TIMESTAMP LT ISZERO PUSH2 0x1529 JUMPI MLOAD SWAP3 PUSH10 0x21E19E0C9BAB2400000 SWAP4 DUP5 SUB SWAP4 DUP5 GT PUSH2 0x1515 JUMPI POP MLOAD SWAP1 JUMP JUMPDEST PUSH4 0x4E487B71 PUSH1 0xE0 SHL DUP2 MSTORE PUSH1 0x11 PUSH1 0x4 MSTORE PUSH1 0x24 SWAP1 REVERT JUMPDEST POP POP PUSH3 0x15180 TIMESTAMP ADD SWAP2 DUP3 TIMESTAMP GT PUSH2 0x1515 JUMPI POP PUSH10 0x21E19E0C9BAB2400000 SWAP2 SWAP1 JUMP JUMPDEST PUSH4 0x4E487B71 PUSH1 0xE0 SHL DUP6 MSTORE PUSH1 0x41 PUSH1 0x4 MSTORE PUSH1 0x24 DUP6 REVERT INVALID LOG2 PUSH5 0x6970667358 0x22 SLT KECCAK256 0xCB GASLIMIT PUSH26 0x91ABFC3300FCFA17B373510C849304B9ED7A94926017D3A52561 MUL COINBASE 0xB3 PUSH5 0x736F6C6343 STOP ADDMOD EQ STOP CALLER 0x2F DUP8 DUP9 GT PUSH31 0x7EFF1D82E926EC794901D17C78024A50270940304540A733656F0D00000000 "},"methodIdentifiers":{"DEFAULT_ADMIN_ROLE()":"a217fddf","GUARDIAN_ROLE()":"24ea54f4","MAX_DAILY_REWARD_PER_PATIENT()":"26a77aa2","MAX_REWARD_PER_TX()":"31323a93","OPERATOR_ROLE()":"f5b541a6","RATE_LIMIT_PERIOD()":"b7b188d1","batchRewardPatients(address[],uint256[],uint256[],string[])":"68e41046","dentiaToken()":"9b0ed5a3","deploymentTimestamp()":"bfc12c05","emergencyPause(string)":"cf5b4fd5","emergencyUnpause()":"4a4e3bd5","emergencyWithdraw(address,uint256)":"95ccea67","getRemainingDailyAllowance(address)":"1b583f90","getRoleAdmin(bytes32)":"248a9ca3","getStatistics()":"372d6b27","grantRole(bytes32,address)":"2f2ff15d","hasReceivedRewards(address)":"6040fa8b","hasRole(bytes32,address)":"91d14854","isNonceUsed(address,uint256)":"cab7e8eb","paused()":"5c975abb","rateLimits(address)":"7a14c7d2","renounceRole(bytes32,address)":"36568abe","revokeRole(bytes32,address)":"d547741f","rewardPatient(address,uint256,uint256,string)":"b257d568","setTokenAddress(address)":"26a4e8d2","supportsInterface(bytes4)":"01ffc9a7","totalDistributed()":"efca2eed","totalPatients()":"deb5ef09","treasuryBalance()":"313dab20","usedNonces(address,uint256)":"6a8a6894"}}}}}